:1000000002308A00962A00000A108A100A1182071C
:1000100028340C340134063428308400831300085B
:10002000031920280130F800F701F70B1528F80B09
:1000300014284A30F700F70B1B281E28800B1228C3
:1000400008002F18252808122628081683160812DB
:100050008312AF182D2888122E288816831688122E
:1000600083122F193528081336280817831608130A
:100070008312AF193D2888133E28881783168813EA
:1000800000008312081583160811462883120811F0
:100090008316081183120800B00183160816003079
:1000A0008312081A0130B0048316881600308312B8
:1000B000881A0130F7000310F70D7708B004831693
:1000C000081700308312081B0130F700F70DF70DF9
:1000D000FC30F7057708B0048316881700308312C8
:1000E000881B0130F700F70DF70DF70DF830F70515
:1000F0007708B0043008F8000800831608110810CB
:10010000881083120810831608100816881608171E
:10011000881783128814831688100000831208152C
:1001200083160811000083124C207808AF000811D4
:1001300083160811000083120815831608110000A9
:1001400083124C207808AE0008118316081108129B
:1001500088120813881383122F0EF700F030F7056A
:1001600077082E04F8007808AE00AE1FB928831671
:100170008528AC08031DBE280810BF280814831664
:100180000810000083128810831688100000831264
:1001900008118316081183122D0EAE000F30AE0524
:1001A0002E08AF0021202D080F39AE00AF0021200E
:1001B0000800831608128812081388130811081003
:1001C0008810831208108316081083128810831673
:1001D000881083120811831608110F308312A800AB
:1001E0000C200130A5002508033C031CFF28033028
:1001F000AF0021200530A8000C20A50AF32802300A
:10020000AF0021200530A8000C20A5012508033CE3
:10021000031C132925080420A600AC012608AD0004
:100220007D20A50A06298A110A12AA2A0830F80098
:1002300000008711A0112008831687000000831298
:10024000A70D0712031C2A292016200883168700F1
:100250002E298312201220088316870000008312A3
:10026000A0152008831687008312871D3529F80BF7
:10027000182900008711A0112008831687000000AC
:1002800083122016200883168700000000008312C6
:10029000A0152008831687008312871D4D29F801B9
:1002A0000000071A78148711A01120088316870010
:1002B0008312071220122008831687008312080079
:1002C000201620088316870000008312A01520083E
:1002D000831687000000831207122012200883165D
:1002E0008700000083128711A01120088316870061
:1002F000D0308312A70016212508A7001621260852
:10030000A700162120122008831687000000831200
:10031000A0152008831687008312871D8D290000F1
:100320009129000020162008831687000000831200
:100330000800201620088316870000008312A015ED
:10034000200883168700000083120712201220085D
:1003500083168700000083128711A01120088316DE
:100360008700D0308312A70016212508A700162188
:10037000201620088316870000008312A01520088D
:100380008316870000008312871DC42907122012DC
:10039000200883168700000083128711A01120080F
:1003A00083168700D1308312A70016210130F70091
:1003B0000830A7007708A8002016200883168700B9
:1003C00000008312A0152008831687008312871D62
:1003D000E729071A0314071E0310F80D0000A011E7
:1003E00020088316870083128711A70BDC292016AB
:1003F00020088316870000008312071228080319BB
:10040000062A201220088316870083120000A015F8
:100410002008831687008312871D0C2A000087118D
:10042000A0112008831687000000831207122012F3
:1004300020088316870078088312A4002012200861
:100440008316870000008312A015200883168700FA
:100450008312871D292A00002D2A0000201620085B
:1004600083168700000083122408F8000800290B77
:100470003A2A3D2A4030AA003E2AAA010130280229
:10048000AA072A088038AB00AC012B08AD007D20FC
:1004900008002708073A0319572A0B3A03195C2A60
:1004A000063A0319642A023A03196A2A6F2A0130AC
:1004B000A800A9003722742AAC010130AD007D20CC
:1004C0000230A8000C20742A0130A8000230A900D4
:1004D0003722742AAC011030AD007D20742A01301F
:1004E000AC002708AD007D200800A61B872A0F302E
:1004F000F700250EF7050A3077020318822A3030FC
:10050000F707842A2608F7077708A70049220F3043
:10051000A5050A30250203188F2A3030912AA61328
:100520002608A5072508A7004922080003081F3947
:100530008300FF30A0004530A100A2000930A300D5
:1005400083161F149F141F159F1107309C008313DF
:100550008312D928A5012108A60060210130A50039
:100560002208A6006021A5012308A6006021A5019C
:1005700099217808A1000130A50099217808A200EE
:100580000230A50099217808A3002308A500573060
:10059000A60075223A30A70049222208A50057304C
:1005A000A60075223A30A70049222108A50057303D
:1005B000A60075220130A800A90037220230A5004C
:0E05C0009630A8000C20A50BE02AB72A630095
:02400E00313F40
:00000001FF
;PIC16F877A
;CRC=99F1  CREATED="23-Nov-22 19:48"
